:020000040800F2
:1000000000000520711400084D1200085512000868
:100010005D120008651200086D1200080000000063
:100020000000000000000000000000007512000841
:100030008312000800000000911200089F120008BF
:10004000C1140008C1140008C1140008C11400083C
:10005000C1140008C1140008C1140008C11400082C
:10006000C1140008C1140008C1140008C11400081C
:10007000C1140008C1140008C1140008C11400080C
:10008000C1140008C1140008C1140008C1140008FC
:10009000C1140008C1140008C1140008C1140008EC
:1000A000C1140008C1140008C1140008C1140008DC
:1000B000C1140008C1140008C1140008C1140008CC
:1000C000C1140008C1140008C1140008C1140008BC
:1000D000C1140008C1140008C1140008C1140008AC
:1000E000C1140008C1140008C1140008C11400089C
:1000F000C1140008C1140008C1140008C11400088C
:10010000C1140008C1140008C1140008C11400087B
:10011000C1140008C1140008C1140008C11400086B
:10012000C1140008C1140008C1140008C11400085B
:10013000C1140008C1140008C1140008C11400084B
:10014000C1140008C1140008C1140008AD12000851
:10015000C1140008C1140008C1140008C11400082B
:10016000C1140008C1140008C1140008C11400081B
:10017000C1140008C1140008C114000800000000E8
:10018000C1140008C1140008C1140008C1140008FB
:10019000C1140008C1140008C1140008C1140008EB
:1001A000C1140008C1140008C1140008C1140008DB
:1001B000C1140008C1140008C1140008C1140008CB
:0801C000C1140008C11400087D
:1001D00010B5054C237833B9044B13B10448AFF381
:1001E00000800123237010BDD40200200000000015
:1001F00074E0000808B5034B1BB103490348AFF393
:10020000008008BD00000000D802002074E0000853
:1002100001F0FF01102A2BDB10F0070F08D010F8B7
:10022000013B013A8B422DD010F0070F42B3F6D1BB
:10023000F0B441EA012141EA014122F007047FF0D4
:1002400000070023F0E80256083C85EA010586EA2B
:10025000010685FA47F5A3FA87F586FA47F6A5FA67
:1002600087F68EB9EED1F0BC01F0FF0102F0070273
:1002700032B110F8013B013A83EA010313B1F8D11E
:100280000020704701387047002D06BF35460338FF
:10029000073815F0010F07D1013015F4807F02BF38
:1002A000013015F4C03F0130F0BC0138704700BF89
:1002B000034613F8012B002AFBD1181A01387047A6
:1002C00081F0004102E000BF83F0004330B54FEA07
:1002D00041044FEA430594EA050F08BF90EA020F74
:1002E0001FBF54EA000C55EA020C7FEA645C7FEA07
:1002F000655C00F0E2804FEA5454D4EB5555B8BF2A
:100300006D420CDD2C4480EA020281EA030382EA9A
:10031000000083EA010180EA020281EA0303362D2C
:1003200088BF30BD11F0004F4FEA01314FF4801CFF
:100330004CEA113102D0404261EB410113F0004F11
:100340004FEA03334CEA133302D0524263EB4303C8
:1003500094EA050F00F0A780A4F10104D5F1200E66
:100360000DDB02FA0EFC22FA05F2801841F10001C1
:1003700003FA0EF2801843FA05F359410EE0A5F195
:1003800020050EF1200E012A03FA0EFC28BF4CF0C6
:10039000020C43FA05F3C01851EBE37101F000457C
:1003A00007D54FF0000EDCF1000C7EEB00006EEB89
:1003B0000101B1F5801F1BD3B1F5001F0CD3490813
:1003C0005FEA30004FEA3C0C04F101044FEA44526A
:1003D00012F5800F80F09A80BCF1004F08BF5FEAF1
:1003E000500C50F1000041EB045141EA050130BDD1
:1003F0005FEA4C0C404141EB0101013C28BFB1F5E3
:10040000801FE9D291F0000F04BF01460020B1FA2D
:1004100081F308BF2033A3F10B03B3F120020CDA00
:100420000C3208DD02F1140CC2F10C0201FA0CF0DE
:1004300021FA02F10CE002F11402D8BFC2F1200C43
:1004400001FA02F120FA0CFCDCBF41EA0C019040F9
:10045000E41AA2BF01EB0451294330BD6FEA040442
:100460001F3C1CDA0C340EDC04F11404C4F120022D
:1004700020FA04F001FA02F340EA030021FA04F33F
:1004800045EA030130BDC4F10C04C4F1200220FA96
:1004900002F001FA04F340EA0300294630BD21FAD4
:1004A00004F0294630BD94F0000F83F4801306BF9A
:1004B00081F480110134013D4EE77FEA645C18BF8E
:1004C0007FEA655C29D094EA050F08BF90EA020F25
:1004D00005D054EA000C04BF1946104630BD91EA1D
:1004E000030F1EBF0021002030BD5FEA545C05D120
:1004F0004000494128BF41F0004130BD14F580045F
:100500003CBF01F5801130BD01F0004545F0FE41D2
:1005100041F470014FF0000030BD7FEA645C1ABF07
:10052000194610467FEA655C1CBF0B46024650EA3E
:10053000013406BF52EA033591EA030F41F400216A
:1005400030BD00BF90F0000F04BF0021704730B5F0
:100550004FF4806404F132044FF000054FF00001C5
:1005600050E700BF90F0000F04BF0021704730B586
:100570004FF4806404F1320410F0004548BF40425B
:100580004FF000013EE700BF42004FEAE2014FEAB0
:1005900031014FEA02701FBF12F07F4393F07F4F8B
:1005A00081F06051704732F07F4208BF704793F08E
:1005B0007F4F04BF41F40021704730B54FF46074A1
:1005C00001F0004521F000411CE700BF50EA0102A4
:1005D00008BF704730B54FF000050AE050EA01024D
:1005E00008BF704730B511F0004502D5404261EBBD
:1005F00041014FF4806404F132045FEA915C3FF4FE
:10060000D8AE4FF003025FEADC0C18BF03325FEA9A
:10061000DC0C18BF033202EBDC02C2F1200300FA4B
:1006200003FC20FA02F001FA03FE40EA0E0021FA70
:1006300002F11444BDE600BF70B54FF0FF0C4CF45E
:10064000E06C1CEA11541DBF1CEA135594EA0C0F10
:1006500095EA0C0F00F0DEF82C4481EA030621EA4B
:100660004C5123EA4C5350EA013518BF52EA033586
:1006700041F4801143F4801338D0A0FB02CE4FF038
:100680000005E1FB02E506F00042E0FB03E54FF068
:100690000006E1FB03569CF0000F18BF4EF0010E60
:1006A000A4F1FF04B6F5007F64F5407404D25FEA5C
:1006B0004E0E6D4146EB060642EAC62141EA55510F
:1006C0004FEAC52040EA5E504FEACE2EB4F1FD0C51
:1006D00088BFBCF5E06F1ED8BEF1004F08BF5FEACF
:1006E000500E50F1000041EB045170BD06F0004681
:1006F00046EA010140EA020081EA0301B4EB5C042E
:10070000C2BFD4EB0C0541EA045170BD41F4801125
:100710004FF0000E013C00F3AB8014F1360FDEBF4A
:10072000002001F0004170BDC4F10004203C35DA26
:100730000C341BDC04F11404C4F1200500FA05F3A9
:1007400020FA04F001FA05F240EA020001F000424A
:1007500021F0004110EBD37021FA04F642EB0601C0
:100760005EEA430E08BF20EAD37070BDC4F10C04EA
:10077000C4F1200500FA04F320FA05F001FA04F2AE
:1007800040EA020001F0004110EBD37041F100019A
:100790005EEA430E08BF20EAD37070BDC4F12005A5
:1007A00000FA05F24EEA020E20FA04F301FA05F20D
:1007B00043EA020321FA04F001F0004121FA04F2B5
:1007C00020EA020000EBD3705EEA430E08BF20EA85
:1007D000D37070BD94F0000F0FD101F000464000BF
:1007E00041EB010111F4801F08BF013CF7D041EA41
:1007F000060195F0000F18BF704703F00046520045
:1008000043EB030313F4801F08BF013DF7D043EA15
:100810000603704794EA0C0F0CEA135518BF95EACB
:100820000C0F0CD050EA410618BF52EA4306D1D152
:1008300081EA030101F000414FF0000070BD50EA71
:10084000410606BF1046194652EA430619D094EAFB
:100850000C0F02D150EA013613D195EA0C0F05D1E5
:1008600052EA03361CBF104619460AD181EA030139
:1008700001F0004141F0FE4141F470014FF00000F1
:1008800070BD41F0FE4141F4780170BD70B54FF08C
:10089000FF0C4CF4E06C1CEA11541DBF1CEA13550C
:1008A00094EA0C0F95EA0C0F00F0A7F8A4EB0504EE
:1008B00081EA030E52EA03354FEA013100F08880E5
:1008C0004FEA03334FF0805545EA131343EA1263AE
:1008D0004FEA022245EA111545EA10654FEA002663
:1008E0000EF000419D4208BF964244F1FD0404F51C
:1008F000407402D25B084FEA3202B61A65EB030578
:100900005B084FEA32024FF480104FF4002CB6EB34
:10091000020E75EB030E22BFB61A754640EA0C00B4
:100920005B084FEA3202B6EB020E75EB030E22BFF4
:10093000B61A754640EA5C005B084FEA3202B6EB35
:10094000020E75EB030E22BFB61A754640EA9C00F4
:100950005B084FEA3202B6EB020E75EB030E22BFC4
:10096000B61A754640EADC0055EA060E18D04FEA82
:10097000051545EA16754FEA06164FEAC30343EA22
:1009800052734FEAC2025FEA1C1CC0D111F4801FEF
:100990000BD141EA00014FF000004FF0004CB6E7E8
:1009A00011F4801F04BF01430020B4F1FD0C88BF87
:1009B000BCF5E06F3FF6AFAEB5EB030C04BFB6EB92
:1009C000020C5FEA500C50F1000041EB045170BD85
:1009D0000EF0004E4EEA113114EB5C04C2BFD4EBB2
:1009E0000C0541EA045170BD41F480114FF0000E36
:1009F000013C90E645EA060E8DE60CEA135594EAB2
:100A00000C0F08BF95EA0C0F3FF43BAF94EA0C0FB4
:100A10000AD150EA01347FF434AF95EA0C0F7FF429
:100A200025AF104619462CE795EA0C0F06D152EA7D
:100A300003353FF4FDAE1046194622E750EA410661
:100A400018BF52EA43067FF4C5AE50EA41047FF472
:100A50000DAF52EA43057FF4EBAE12E74FF0FF3CD7
:100A600006E000BF4FF0010C02E000BF4FF0010CA8
:100A70004DF804CD4FEA410C7FEA6C5C4FEA430C21
:100A800018BF7FEA6C5C1BD001B050EA410C0CBF70
:100A900052EA430C91EA030F02BF90EA020F0020D2
:100AA000704710F1000F91EA030F58BF994208BF39
:100AB00090422CBFD8176FEAE37040F001007047F6
:100AC0004FEA410C7FEA6C5C02D150EA013C07D14D
:100AD0004FEA430C7FEA6C5CD6D152EA033CD3D098
:100AE0005DF8040B704700BF8446104662468C4692
:100AF0001946634600E000BF01B5FFF7B7FF0028C5
:100B000048BF10F1000F01BD4DF808EDFFF7F4FFED
:100B10000CBF012000205DF808FB00BF4DF808ED78
:100B2000FFF7EAFF34BF012000205DF808FB00BF9B
:100B30004DF808EDFFF7E0FF94BF012000205DF8BD
:100B400008FB00BF4DF808EDFFF7CEFF94BF012072
:100B500000205DF808FB00BF4DF808EDFFF7C4FF6B
:100B600034BF012000205DF808FB00BF4FEA410CB4
:100B70007FEA6C5C02D150EA013C0AD14FEA430C97
:100B80007FEA6C5C02D152EA033C02D14FF00000D4
:100B900070474FF0010070474FEA410212F5001212
:100BA00015D211D56FF47873B3EB625212D94FEAB4
:100BB000C12343F0004343EA505311F0004F23FA9E
:100BC00002F018BF404270474FF00000704750EAF3
:100BD000013005D111F0004008BF6FF000407047B0
:100BE0004FF00000704700BF4A0011D212F500120A
:100BF00011D20DD56FF47873B3EB62520ED44FEA75
:100C0000C12343F0004343EA505323FA02F07047F4
:100C10004FF00000704750EA013002D14FF0FF3032
:100C200070474FF0000070474FEA4102B2F1E043D5
:100C300024BFB3F5001CDCF1FE5C0DD901F0004CC3
:100C40004FEAC0024CEA5070B2F1004F40EB830013
:100C500008BF20F00100704711F0804F21D113F13F
:100C60003872BCBF01F00040704741F480114FEA78
:100C70005252C2F11802C2F1200C10FA0CF320FA01
:100C800002F018BF40F001004FEAC1234FEAD3231E
:100C900003FA0CFC40EA0C0023FA02F34FEA430388
:100CA000CCE77FEA625307D150EA01331EBF4FF011
:100CB000FE4040F44000704701F0004040F0FE402C
:100CC00040F40000704700BF53B94AB9002908BF7B
:100CD00000281CBF4FF0FF314FF0FF3000F0A0B9EB
:100CE000ADF1080C6DE904CE00F03CF8DDF804E04D
:100CF000DDE9022304B0704738B500220023044622
:100D00000D46FFF70BFF28B920462946BDE83840BD
:100D100000F00AB8204605F1004100F005F8404215
:100D200061EB410138BD00BFD0B50C4B0022064637
:100D30000F46FFF781FCFFF757FF0446FFF702FC61
:100D4000074B0022FFF778FC02460B463046394637
:100D5000FFF7BAFAFFF748FF2146D0BD0000F03D8B
:100D60000000F0412DE9F047089D0C46002B4ED1C4
:100D700094468C458646B2FA82F262D94AB1C2F1F3
:100D80002003914020FA03F30CFA02FC194300FA05
:100D900002FE4FEA1C471FFA8CF6B1FBF7F44FEA4C
:100DA0001E4307FB141143EA014304FB06F1994279
:100DB0000AD91CEB030304F1FF3080F01281994241
:100DC00040F20F81023C6344591A1FFA8EF3B1FBC3
:100DD000F7F007FB101143EA014300FB06F69E42C1
:100DE0000AD91CEB030300F1FF3180F0FC809E4226
:100DF00040F2F980634402389B1B40EA0440002122
:100E00001DB1D3400022C5E90032BDE8F0878B4216
:100E100005D90DB1C5E9000100210846F5E7B3FA8F
:100E200083F1002946D1A34202D39042C0F0F08062
:100E3000861A64EB03030120002DE6D0C5E90063A8
:100E4000E3E7002A40F09080A1EB0C044FEA1C4835
:100E50001FFA8CF70121B4FBF8F64FEA1E4308FB9A
:100E6000164443EA044307FB06F0984208D91CEBFA
:100E7000030306F1FF3402D2984200F2CD802646E9
:100E80001C1A1FFA8EF3B4FBF8F008FB104443EA77
:100E9000044300FB07F79F4208D91CEB030300F152
:100EA000FF3402D29F4200F2B0802046DB1B40EAB2
:100EB0000640A5E7C1F120068B4022FA06F71F4342
:100EC00020FA06FC04FA01F343EA0C03F44000FAAA
:100ED00001F8380C4FEA1349B4FBF0FE1FFA87FC07
:100EE00000FB1E4449EA04440EFB0CF9A14502FA3A
:100EF00001F20AD93C190EF1FF3A80F08480A14535
:100F000040F28180AEF1020E3C44A4EB09041FFACA
:100F100083F9B4FBF0F300FB134449EA044403FBF8
:100F20000CFCA44507D93C1903F1FF3067D2A44556
:100F300065D9023B3C4443EA0E40A0FB0293A4EB7C
:100F40000C049C42CE469C4651D34ED055B1B8EBD2
:100F50000E0364EB0C0404FA06F6CB401E43CC40AF
:100F6000C5E90064002150E7C2F1200320FA03F133
:100F70000CFA02FC24FA03F394400C434FEA1C4899
:100F800000FA02FE1FFA8CF7B3FBF8F008FB1031F1
:100F9000230C43EA014300FB07F1994208D91CEBFB
:100FA000030300F1FF362CD299422AD90238634458
:100FB0005B1AA4B2B3FBF8F108FB113344EA034413
:100FC00001FB07F3A34208D91CEB040401F1FF362F
:100FD00013D2A34211D902396444E41A41EA004110
:100FE00039E70446F0E6084606E7C845AED2B9EB55
:100FF000020E63EB070C0138A8E73146EDE7034624
:1010000099E73046D4E7D6467FE7634402384DE798
:101010000646234608460FE7023E634430E700BF1A
:10102000704700BF80B500AF00F0BAF800F04AFA90
:1010300000F006F800F06AF807F052FF00BFFDE785
:1010400080B594B000AF07F120033022002118468C
:1010500009F0EDFC07F10C0300221A605A609A6057
:10106000DA601A61274B1B6C264A43F080531364E5
:10107000244B1B6C03F08053BB60BB68224B1B6886
:1010800023F44043204A43F4804313601E4B1B6803
:1010900003F440437B607B6801233B624FF4A02351
:1010A0007B620223BB634FF48003FB6319233B6421
:1010B000C0237B640423BB640423FB6407F1200387
:1010C000184602F08FF80346002B01D000F094F888
:1010D0000F23FB6002233B6100237B614FF4A0538D
:1010E000BB610023FB6107F10C030121184602F0EC
:1010F0001DFB0346002B01D000F07EF800BF5037E7
:10110000BD4680BD003802400070004080B588B008
:1011100000AF07F10C0300221A605A609A60DA608F
:101120001A611D4B1B6B1C4A43F0010313631A4BDE
:101130001B6B03F00103BB60BB68174B1B6B164AAC
:1011400043F008031363144B1B6B03F008037B602D
:101150007B68114B1B6B104A43F0800313630E4BEB
:101160001B6B03F080033B603B68002220210B488F
:1011700000F068FD2023FB6001233B6100237B61BD
:101180000023BB6107F10C031946044800F0AEFBD5
:1011900000BF2037BD4680BD00380240000C024031
:1011A00080B584B000AF3B4600221A605A609A6056
:1011B000DA6000F023FB01233B7000237B700023E7
:1011C0007B601F233B7287237B720023BB7200234B
:1011D000FB7201233B7301237B730023BB7300234A
:1011E000FB733B46184600F041FB042000F01EFB59
:1011F00000BF1037BD4680BD80B400AF72B600BFDF
:1012000000BFFDE780B483B000AF0F4B1B6C0E4AEC
:1012100043F0805313640C4B1B6C03F080537B60D2
:101220007B68094B5B6C084A43F480435364064B6C
:101230005B6C03F480433B603B6800BF0C37BD46EA
:101240005DF8047B704700BF0038024080B400AFF7
:1012500000BFFDE780B400AF00BFFDE780B400AF82
:1012600000BFFDE780B400AF00BFFDE780B400AF72
:1012700000BFFDE780B400AF00BFBD465DF8047B52
:10128000704780B400AF00BFBD465DF8047B704777
:1012900080B400AF00BFBD465DF8047B704780B5E9
:1012A00000AF00F055F900BF80BD000080B500AF71
:1012B000024800F018FE00BF80BD00BFD897012093
:1012C00080B400AF01231846BD465DF8047B70472B
:1012D00080B582B000AF7860396009F00BFC03463E
:1012E00016221A604FF0FF3318460837BD4680BDFE
:1012F00080B582B000AF78604FF0FF317868FFF7BB
:10130000E7FF00BFFDE780B586B000AFF860B960C9
:101310007A6000237B610AE0AFF300800146BB687E
:101320005A1CBA60CAB21A707B6901337B617A6950
:101330007B689A42F0DB7B6818461837BD4680BD53
:1013400080B586B000AFF860B9607A6000237B6139
:1013500009E0BB685A1CBA601B781846AFF30080DE
:101360007B6901337B617A697B689A42F1DB7B6838
:1013700018461837BD4680BD80B483B000AF786092
:101380004FF0FF3318460C37BD465DF8047B7047BD
:1013900080B483B000AF786039603B684FF400528E
:1013A0005A60002318460C37BD465DF8047B704731
:1013B00080B483B000AF7860012318460C37BD4677
:1013C0005DF8047B704780B485B000AFF860B96009
:1013D0007A60002318461437BD465DF8047B7047D9
:1013E00080B586B000AF7860144A154BD31A7B6184
:1013F0007B693B61134B1B68002B02D1114B124AD6
:101400001A60104B1A687B6813443A699A4207D2F3
:1014100009F070FB03460C221A604FF0FF3309E01D
:10142000084B1B68FB60074B1A687B681344054A2E
:101430001360FB6818461837BD4680BD00000520C4
:1014400000040000F0020020089E012080B400AFDC
:10145000064BD3F88830054A43F47003C2F888304D
:1014600000BFBD465DF8047B704700BF00ED00E0A3
:10147000DFF834D0FFF7EAFF0C480D490D4A00238E
:1014800002E0D458C4500433C4188C42F9D30A4A39
:101490000A4C002301E013600432A242FBD309F09E
:1014A0002FFBFFF7BFFD7047000005200000002064
:1014B000D402002048E50008D4020020049E012048
:1014C000FEE7000080B500AF084B1B68074A43F4F5
:1014D00080731360032000F04FF90F2000F008F82C
:1014E000FFF790FE0023184680BD00BF003C02407D
:1014F00080B582B000AF7860124B1A68124B1B782F
:1015000019464FF47A73B3FBF1F3B2FBF3F31846C9
:1015100000F067F90346002B01D001230EE07B6841
:101520000F2B0AD8002279684FF0FF3000F02FF916
:10153000064A7B681360002300E001231846083741
:10154000BD4680BD000000200800002004000020EF
:1015500080B400AF064B1B781A46064B1B68134439
:10156000044A136000BFBD465DF8047B704700BFAE
:1015700008000020F402002080B400AF034B1B6879
:101580001846BD465DF8047B704700BFF40200209A
:1015900080B584B000AF7860FFF7EEFFB8607B687D
:1015A000FB60FB68B3F1FF3F05D00A4B1B781A467E
:1015B000FB681344FB6000BFFFF7DEFF0246BB6819
:1015C000D31AFA689A42F7D800BF00BF1037BD4659
:1015D00080BD00BF0800002080B485B000AF7860F7
:1015E0007B6803F00703FB600B4BDB68BB60BA68EA
:1015F0004FF6FF031340BB60FB681A02BB681A4337
:10160000064B1343BB60044ABB68D36000BF14376A
:10161000BD465DF8047B704700ED00E00000FA0570
:1016200080B400AF044BDB681B0A03F007031846C5
:10163000BD465DF8047B704700ED00E080B483B0E8
:1016400000AF0346FB7197F90730002B0BDBFB79EA
:1016500003F01F02074997F907305B09012000FAE0
:1016600002F241F8232000BF0C37BD465DF8047B31
:10167000704700BF00E100E080B483B000AF0346D4
:101680003960FB7197F90730002B0ADB3B68DAB24F
:101690000C4997F907301201D2B20B4483F80023AA
:1016A0000AE03B68DAB20849FB7903F00F03043B18
:1016B0001201D2B20B441A7600BF0C37BD465DF85A
:1016C000047B704700E100E000ED00E080B489B0E9
:1016D00000AFF860B9607A60FB6803F00703FB6154
:1016E000FB69C3F10703042B28BF0423BB61FB691B
:1016F0000433062B02D9FB69033B00E000237B6126
:101700004FF0FF32BB6902FA03F3DA43BB681A40B9
:101710007B699A404FF0FF317B6901FA03F3D943AB
:101720007B680B40134318462437BD465DF8047BA5
:101730007047000080B582B000AF78607B68013BE5
:10174000B3F1807F01D301230FE00A4A7B68013B9C
:1017500053600F214FF0FF30FFF78EFF054B002243
:101760009A60044B07221A60002318460837BD46CA
:1017700080BD00BF10E000E080B582B000AF7860AF
:101780007868FFF729FF00BF0837BD4680BD80B5E8
:1017900086B000AF0346B9607A60FB7300237B61BB
:1017A000FFF73EFF78617A68B9687869FFF78EFFC6
:1017B000024697F90F3011461846FFF75DFF00BF4C
:1017C0001837BD4680BD80B582B000AF0346FB71BF
:1017D00097F907301846FFF731FF00BF0837BD46BD
:1017E00080BD80B582B000AF78607868FFF7A2FF57
:1017F000034618460837BD4680BD000080B400AFE0
:10180000BFF35F8F00BF074B5B6A064A23F4803348
:101810005362054B00225A6000BFBD465DF8047B51
:10182000704700BF00ED00E090ED00E080B483B0B1
:1018300000AF78600B4A7B6843F0010353600A4BAA
:101840005B6A094A43F480335362BFF34F8F00BF92
:10185000BFF36F8F00BF00BF0C37BD465DF8047B40
:10186000704700BF90ED00E000ED00E080B483B071
:1018700000AF78607B685A781B4B9A601A4B1B69E3
:10188000194A23F001031361174A7B685B68D36030
:101890007B681B7B1A077B68DB7A1B061A437B6815
:1018A0009B7ADB041A437B685B7B9B041A437B684F
:1018B0009B7B5B041A437B68DB7B1B041A437B68BE
:1018C0005B7A1B021A437B681B7A5B0013437A68BE
:1018D00012781146044A0B43136100BF0C37BD4612
:1018E0005DF8047B704700BF90ED00E080B489B0E4
:1018F00000AF786039600023FB6100237B61002327
:101900003B610023BB610023FB6175E10122FB69A0
:1019100002FA03F37B613B681B687A6913403B6101
:101920003A697B699A4240F064813B685B6803F0E6
:101930000303012B05D03B685B6803F00303022B14
:1019400030D17B689B68BB61FB695B00032202FAB4
:1019500003F3DB43BA691340BB613B68DA68FB6998
:101960005B0002FA03F3BA691343BB617B68BA698F
:101970009A607B685B68BB610122FB6902FA03F332
:10198000DB43BA691340BB613B685B681B0903F02A
:101990000102FB6902FA03F3BA691343BB617B6876
:1019A000BA695A603B685B6803F00303032B17D0E6
:1019B0007B68DB68BB61FB695B00032202FA03F30F
:1019C000DB43BA691340BB613B689A68FB695B0003
:1019D00002FA03F3BA691343BB617B68BA69DA6040
:1019E0003B685B6803F00303022B23D1FB69DA0831
:1019F0007B68083253F82230BB61FB6903F00703B0
:101A00009B000F2202FA03F3DB43BA691340BB6168
:101A10003B681A69FB6903F007039B0002FA03F3B2
:101A2000BA691343BB61FB69DA087B680832B9699C
:101A300043F822107B681B68BB61FB695B000322D3
:101A400002FA03F3DB43BA691340BB613B685B688E
:101A500003F00302FB695B0002FA03F3BA69134364
:101A6000BB617B68BA691A603B685B6803F440330A
:101A7000002B00F0BE80664B5B6C654A43F48043EC
:101A80005364634B5B6C03F48043FB60FB68614A07
:101A9000FB699B08023352F82330BB61FB6903F0FA
:101AA00003039B000F2202FA03F3DB43BA691340DE
:101AB000BB617B68584A934237D07B68574A934250
:101AC00031D07B68564A93422BD07B68554A93426B
:101AD00025D07B68544A93421FD07B68534A934277
:101AE00019D07B68524A934213D07B68514A934283
:101AF0000DD07B68504A934207D07B684F4A93428F
:101B000001D1092312E00A2310E008230EE0072385
:101B10000CE006230AE0052308E0042306E0032383
:101B200004E0022302E0012300E00023FA6902F04E
:101B3000030292009340BA691343BB613549FB69C4
:101B40009B080233BA6941F823203D4B9B68BB6177
:101B50003B69DB43BA691340BB613B685B6803F4D4
:101B60008013002B03D0BA693B691343BB61344A2D
:101B7000BB699360324BDB68BB613B69DB43BA698D
:101B80001340BB613B685B6803F40013002B03D078
:101B9000BA693B691343BB61294ABB69D360284BCF
:101BA0005B68BB613B69DB43BA691340BB613B685F
:101BB0005B6803F40033002B03D0BA693B6913431D
:101BC000BB611F4ABB6953601D4B1B68BB613B690E
:101BD000DB43BA691340BB613B685B6803F4803345
:101BE000002B03D0BA693B691343BB61144ABB693C
:101BF0001360FB690133FB61FB690F2B7FF686AE37
:101C000000BF00BF2437BD465DF8047B704700BFAE
:101C10000038024000380140000002400004024049
:101C200000080240000C0240001002400014024074
:101C300000180240001C0240002002400024024024
:101C4000003C014080B483B000AF78600B467B80DD
:101C500013467B707B78002B03D07A887B689A616F
:101C600003E07B881A047B689A6100BF0C37BD468D
:101C70005DF8047B704780B586B002AF78607B6802
:101C8000002B01D1012308E17B681B68BB607B68E6
:101C900093F89534DBB2002B06D17B68002283F8E1
:101CA0009424786807F0E6FA7B68032283F8952489
:101CB000BB68B3F1A04F02D17B6800229A717B68A8
:101CC0001B68184602F0EDFB7B6818687B681A7C7D
:101CD0008DF8002004330ECB02F0D6FA0346002B19
:101CE00005D07B68022283F895240123D5E07B6828
:101CF0001B680021184602F0E5FB0346002B05D0C7
:101D00007B68022283F895240123C6E00023FB733D
:101D10004AE0FA7B79681346DB0013449B000B44CE
:101D2000153301221A70FA7B79681346DB001344DD
:101D30009B000B441433FA7B1A70FA7BFB7B98B23E
:101D400079681346DB0013449B000B442E33024694
:101D50001A80FA7B79681346DB0013449B000B441E
:101D6000183300221A70FA7B79681346DB0013449B
:101D70009B000B441C3300221A60FA7B79681346DF
:101D8000DB0013449B000B44203300221A60FA7BD3
:101D900079681346DB0013449B000B442433002274
:101DA0001A60FB7B0133FB737B681B79FA7B9A42D9
:101DB000AFD30023FB7344E0FA7B79681346DB0062
:101DC00013449B000B4403F2552300221A70FA7B44
:101DD00079681346DB0013449B000B4403F515732D
:101DE000FA7B1A70FA7B79681346DB0013449B0078
:101DF0000B4403F5167300221A70FA7B79681346B8
:101E0000DB0013449B000B4403F5177300221A6098
:101E1000FA7B79681346DB0013449B000B4403F5FF
:101E2000187300221A60FA7B79681346DB001344AA
:101E30009B000B4403F5197300221A60FB7B0133EE
:101E4000FB737B681B79FA7B9A42B5D37B68186871
:101E50007B681A7C8DF8002004330ECB02F07EFBE9
:101E60000346002B05D07B68022283F895240123CA
:101E700013E07B6800225A747B68012283F8952462
:101E80007B681B7B012B02D1786801F087F97B68A6
:101E90001B68184603F0BDFB002318461037BD46EB
:101EA00080BD80B582B000AF78607B6893F89434D1
:101EB000012B01D1022312E07B68012283F89424D4
:101EC0007B681B68184602F0DBFA7B681B681846C3
:101ED00003F07EFB7B68002283F8942400231846DD
:101EE0000837BD4680BD90B58DB000AF78607B6887
:101EF0001B683B623B6AFB617B681B68184603F00A
:101F00003CFC0346002B40F0B9847B681B681846F4
:101F100003F0A0FB0346002B00F0AF84FB6903F540
:101F200000639B681B0AC3F30D027B68C3F8D424CB
:101F30007B681B68184603F08DFB034603F0020321
:101F4000022B07D17B681B685A697B681B6802F00B
:101F500002025A617B681B68184603F07BFB03464C
:101F600003F01003102B61D17B681B689A697B68B2
:101F70001B6822F010029A613B6A1B6ABB61BB6955
:101F800003F00F021346DB0013449B0003F51473A8
:101F90007A68134404337B61BB695B0C03F00F0365
:101FA000022B24D1BA6947F6F0731340002B35D0C9
:101FB0007B69D968BB691B099BB2C3F30A039BB257
:101FC0001A46386A03F0B2F97B69DA68BB691B0903
:101FD000C3F30A031A447B69DA607B695A69BB69F7
:101FE0001B09C3F30A031A447B695A6116E0BB69F3
:101FF0005B0C03F00F03062B10D17B6803F29C43AC
:1020000008221946386A03F091F97B695A69BB695D
:102010001B09C3F30A031A447B695A617B681B6876
:102020009A697B681B6842F010029A617B681B68A2
:10203000184603F00FFB034603F40023B3F5002F0B
:1020400040F0A78000237B627B681B68184603F082
:1020500014FBB86299E0BB6A03F00103002B00F0A7
:102060008E807B681B687A6AD2B21146184603F0EC
:1020700038FB38613B6903F00103002B0CD07B6A0D
:102080005A01FB69134403F530631A460123936038
:10209000796A786800F0FCFE3B6903F00803002BC6
:1020A0000CD07B6A5A01FB69134403F530631A466E
:1020B00008239360796A786800F0D2FF3B6903F0E7
:1020C0001003002B08D07B6A5A01FB69134403F507
:1020D00030631A46102393603B6903F00203002B20
:1020E00030D03B6A5B6903F08003802B09D1FB6928
:1020F00003F500635B68FA6902F5006243F48063EC
:1021000053607A6A1346DB0013449B0003F5147393
:102110007A68134404337B617B69DB78012B08D137
:102120007B690022DA707B6ADBB21946786807F0B7
:10213000C5F97B6A5A01FB69134403F530631A46FB
:10214000022393603B6903F02003002B08D07B6AD5
:102150005A01FB69134403F530631A462023936048
:102160003B6903F40053002B09D07B6A5A01FB69D9
:10217000134403F530631A464FF4005393607B6AAF
:1021800001337B62BB6A5B08BB62BB6A002B7FF4D6
:1021900062AF7B681B68184603F05CFA034603F4E1
:1021A0008023B3F5802F40F0DB807B681B681846E6
:1021B00003F07DFAB86200237B62CDE0BB6A03F0D6
:1021C0000103002B00F0C2807B681B687A6AD2B2E0
:1021D0001146184603F0A3FA38613B6903F0010386
:1021E000002B57D07B6A03F00F03012202FA03F39E
:1021F000FB60FB6903F500635A6BFB68DB43F9691D
:1022000001F5006113404B637B6A5A01FB6913447B
:1022100003F510631A46012393607B689B79012BB9
:1022200032D179687A6A1346DB0013449B000B4471
:102230002033196878687A6A1346DB0013449B00E0
:1022400003441C331B68194478687A6A1346DB0020
:1022500013449B000344203319607B6A002B13D185
:1022600079687A6A1346DB0013449B000B442433DD
:102270001B68002B08D17B6818687B6803F29C43BD
:102280001A46012103F0ACFA7B6ADBB21946786882
:1022900007F08FF83B6903F00803002B08D07B6A36
:1022A0005A01FB69134403F510631A46082393602F
:1022B0003B6903F01003002B08D07B6A5A01FB69CD
:1022C000134403F510631A46102393603B6903F02F
:1022D0004003002B08D07B6A5A01FB69134403F5C5
:1022E00010631A46402393603B6903F00203002BFE
:1022F00023D0796A386A02F08FFA7A6A1346DB00D3
:1023000013449B0010337A68134404337B617B6968
:10231000DB78012B08D17B690022DA707B6ADBB2A3
:102320001946786807F0DCF87B6A5A01FB691344A8
:1023300003F510631A46022393603B6903F08003A0
:10234000002B03D0796A786800F015FD7B6A0133B1
:102350007B62BB6A5B08BB62BB6A002B7FF42EAF5B
:102360007B681B68184603F075F9034603F00043C9
:10237000B3F1004F22D1FB6903F500635B68FA6992
:1023800002F5006223F0010353607B6893F8CC34BC
:10239000012B08D17B68002283F8CC2400217868C7
:1023A00007F076FA02E0786807F07AF87B681B6835
:1023B0005A697B681B6802F000425A617B681B689F
:1023C000184603F047F9034603F40063B3F5006FC2
:1023D00012D1FB6903F500639B6803F00103012B35
:1023E00002D1786807F036F87B681B685A697B6809
:1023F0001B6802F400625A617B681B68184603F090
:1024000029F9034603F00063B3F1006F21D17B6823
:102410001B685A697B681B6802F000625A617B681E
:1024200093F8CC34002B11D17B68012283F8CC24A3
:102430007B681B685B6D9B0803F00F027B68C3F829
:10244000D0240121786807F023FA02E0786807F0C9
:1024500001F87B681B68184603F0FCF8034603F498
:102460008053B3F5805F40F0B780FB6903F50063EC
:102470005B68FA6902F5006223F0010353607B6830
:102480001B681021184602F0C7F90023FB6246E0E2
:10249000FB6A5A01FB69134403F510631A464FF6B1
:1024A0007F339360FB6A5A01FB69134403F51063A1
:1024B0001B68FA6A5101FA690A4402F5106223F4B2
:1024C00000131360FB6A5A01FB69134403F5306380
:1024D0001A464FF67F339360FB6A5A01FB69134437
:1024E00003F530631B68FA6A5101FA690A4402F580
:1024F000306223F400131360FB6A5A01FB69134432
:1025000003F530631B68FA6A5101FA690A4402F55F
:10251000306243F000631360FB6A0133FB627B6847
:102520001B791A46FB6A9342B2D3FB6903F5006339
:10253000DB69FA6902F5006243F00113D3617B683D
:10254000DB7B002B16D0FB6903F50063D3F88430E6
:10255000FA6902F5006243F00B03C2F88430FB69AC
:1025600003F500635B6CFA6902F5006243F00B034C
:10257000536415E0FB6903F500635A69FB6903F5D1
:102580000063194642F22B0313434B61FB6903F5C9
:1025900000631B69FA6902F5006243F00B031361E3
:1025A000FB6903F500631B68FA6902F5006223F416
:1025B000FE6313607B6818687B6899797B6803F217
:1025C0009C431A4603F00CF97B681B685A697B68C8
:1025D0001B6802F480525A617B681B68184603F03E
:1025E00039F8034603F40053B3F5005F23D17B6849
:1025F0001B68184603F0D0F87B681B68184602F089
:1026000084F903461A467B68DA717B681C6801F01E
:102610003FFA01467B68DB791A46204601F08EFEC0
:10262000786806F0EEFE7B681B685A697B681B6859
:1026300002F400525A617B681B68184603F00AF8DE
:10264000034603F00803082B0AD1786806F0CBFE96
:102650007B681B685A697B681B6802F008025A6134
:102660007B681B68184602F0F5FF034603F0800301
:10267000802B23D13B6A9B6923F080023B6A9A61DD
:1026800001237B6214E079687A6A1346DB00134405
:102690009B000B4403F257231B78012B05D17B6A67
:1026A000DBB21946786800F008FB7B6A01337B6275
:1026B0007B681B791A467B6A9342E4D37B681B686C
:1026C000184602F0C7FF034603F48013B3F5801FDA
:1026D0003CD101237B622BE07B6A5A01FB691344E6
:1026E00003F510631B68BB6179687A6A1346DB00E7
:1026F00013449B000B4418331B78012B15D1BB6985
:10270000002B12DA79687A6A1346DB0013449B00C7
:102710000B44173301221A707B6ADBB263F07F032C
:10272000DBB21946786800F0C8FA7B6A01337B6235
:102730007B681B791A467B6A9342CDD37B681B6802
:102740005A697B681B6802F480125A617B681B68B7
:10275000184602F07FFF034603F40013B3F5001F91
:1027600056D101237B6245E07B6A5A01FB69134421
:1027700003F530631B68BB6179687A6A1346DB0036
:1027800013449B000B4403F516731B78012B2ED1C9
:10279000BB69002B2BDABB6903F480327B68D3F86A
:1027A000D43403F001039A4221D179687A6A13463E
:1027B000DB0013449B000B4403F2572301221A70E1
:1027C0003B6A9B6943F080023B6A9A613B6A5B69A2
:1027D00003F08003002B0AD1FB6903F500635B68FB
:1027E000FA6902F5006243F40073536008E07B6A03
:1027F00001337B627B681B791A467B6A9342B3D3B1
:102800007B681B685A697B681B6802F400125A6176
:102810007B681B68184602F01DFF034603F08043E7
:10282000B3F1804F0AD1786806F06CFE7B681B68B4
:102830005A697B681B6802F080425A617B681B689A
:10284000184602F007FF034603F00403042B15D1DA
:102850007B681B685B68BB61BB6903F00403002BEA
:1028600002D0786806F05CFE7B681B6859687B685C
:102870001B68BA690A435A6000E000BF3437BD469E
:1028800090BD80B582B000AF78600B46FB707B686E
:1028900093F89434012B01D1022312E07B680122CA
:1028A00083F894247B68FA785A747B681B68FA78FA
:1028B0001146184602F066FE7B68002283F89424D5
:1028C000002318460837BD4680BD80B584B000AFF0
:1028D0007860084611461A460346FB700B463B805B
:1028E0001346BB700023FB7297F90330002B0FDAFD
:1028F000FB7803F00F021346DB0013449B001033F8
:102900007A6813440433FB60FB6801225A700FE0BD
:10291000FB7803F00F021346DB0013449B0003F522
:1029200014737A6813440433FB60FB6800225A7006
:10293000FB7803F00F03DAB2FB681A703A88FB6881
:102940009A60FB68BA781A71FB685B78002B04D038
:10295000FB681B781A46FB685A83BB78022B02D1AE
:10296000FB6800225A717B6893F89434012B01D1E3
:1029700002230EE07B68012283F894247B681B68A5
:10298000F968184601F0E6FF7B68002283F894247A
:10299000FB7A18461037BD4680BD80B584B000AFC5
:1029A00078600B46FB7097F90330002B0FDAFB7849
:1029B00003F00F021346DB0013449B0010337A68C8
:1029C00013440433FB60FB6801225A700FE0FB786C
:1029D00003F00F021346DB0013449B0003F514734E
:1029E0007A6813440433FB60FB6800225A70FB785A
:1029F00003F00F03DAB2FB681A707B6893F8943423
:102A0000012B01D102230EE07B68012283F894247C
:102A10007B681B68F968184602F024F87B6800227E
:102A200083F89424002318461037BD4680BD80B536
:102A300086B000AFF8607A603B600B46FB72FB7AB1
:102A400003F00F021346DB0013449B0003F51473DD
:102A5000FA68134404337B617B697A68DA607B69C6
:102A60003A681A617B6900225A617B6900225A70B8
:102A7000FB7A03F00F03DAB27B691A70FB689B796B
:102A8000012B02D17A687B69DA61FB681868FB6800
:102A90009B791A46796902F0C1F800231846183765
:102AA000BD4680BD80B483B000AF78600B46FB703C
:102AB000FB7803F00F0279681346DB0013449B0098
:102AC0000B4403F51A731B6818460C37BD465DF8B6
:102AD000047B704780B586B000AFF8607A603B60D9
:102AE0000B46FB72FB7A03F00F021346DB00134424
:102AF0009B001033FA68134404337B617B697A6866
:102B0000DA607B693A681A617B6900225A617B69E5
:102B100001225A70FB7A03F00F03DAB27B691A7054
:102B2000FB689B79012B02D17A687B69DA61FB68CB
:102B30001868FB689B791A46796902F06FF80023E0
:102B400018461837BD4680BD80B584B000AF7860A8
:102B50000B46FB70FB7803F00F037A6812799342FF
:102B600001D901234FE097F90330002B0FDAFB78EE
:102B700003F00F021346DB0013449B0010337A6806
:102B800013440433FB60FB6801225A700DE0FA78AD
:102B90001346DB0013449B0003F514737A68134457
:102BA0000433FB60FB6800225A70FB6801229A70B4
:102BB000FB7803F00F03DAB2FB681A707B6893F8B6
:102BC0009434012B01D102231DE07B68012283F89C
:102BD00094247B681B68F968184602F0FFFBFB78B9
:102BE00003F00F03002B09D17B6818687B68997983
:102BF0007B6803F29C431A4602F0F2FD7B680022D8
:102C000083F89424002318461037BD4680BD80B554
:102C100084B000AF78600B46FB70FB7803F00F03C5
:102C20007A681279934201D9012342E097F903307F
:102C3000002B0FDAFB7803F00F021346DB0013447E
:102C40009B0010337A6813440433FB60FB68012255
:102C50005A700FE0FB7803F00F021346DB001344B9
:102C60009B0003F514737A6813440433FB60FB681C
:102C700000225A70FB6800229A70FB7803F00F0361
:102C8000DAB2FB681A707B6893F89434012B01D197
:102C900002230EE07B68012283F894247B681B6882
:102CA000F968184602F008FC7B68002283F8942437
:102CB000002318461037BD4680BD80B584B000AFF4
:102CC00078600B46FB7097F90330002B0CDAFB7829
:102CD00003F00F021346DB0013449B0010337A68A5
:102CE00013440433FB600CE0FB7803F00F0213463F
:102CF000DB0013449B0003F514737A681344043318
:102D0000FB607B681B68F968184602F027FA0346E7
:102D1000FB72FB7A18461037BD4680BD80B582B085
:102D200000AF78600B46FB707B6893F89434012BFE
:102D300001D102231BE07B68012283F8942497F9D8
:102D40000330002B09DA7B681A68FB7803F00F0365
:102D50001946104601F060FD04E07B681B681846C8
:102D600001F08CFD7B68002283F894240023184630
:102D70000837BD4680BD80B58AB002AF7860396043
:102D80007B681B687B617B693B613A681346DB00AB
:102D900013449B0010337A6813440433FB60FB68D0
:102DA0005A69FB681B699A4201D901236BE0FB68F1
:102DB0001A69FB685B69D31AFB61FB689B68FA6957
:102DC0009A4202D9FB689B68FB61FB6903339B084D
:102DD000BB612AE0FB681A69FB685B69D31AFB6177
:102DE000FB689B68FA699A4202D9FB689B68FB61A1
:102DF000FB6903339B08BB61FB68D9683B68DAB2A7
:102E0000FB6998B27B689B7900930346786902F06E
:102E10004FFAFB68DA68FB691A44FB68DA60FB6802
:102E20005A69FB691A44FB685A613B685A013B695D
:102E3000134403F510639B699BB2BA699A4209D89F
:102E4000FB685A69FB681B699A4203D2FB681B69DD
:102E5000002BBFD1FB681A69FB685B699A4211D8E5
:102E60003B6803F00F03012202FA03F3BB603B69E6
:102E700003F500635A6BBB68DB43396901F50061F8
:102E800013404B63002318462037BD4680BD000029
:102E900080B588B000AF786039607B681B68FB61E3
:102EA000FB69BB61FB693C3304331B687B613B6896
:102EB0005A01BB69134403F530639B683B617B682F
:102EC0009B79012B7BD13B6903F00803002B15D0C4
:102ED0007B69614A934240F2B9803B6903F4004345
:102EE000002B00F0B3803B685A01BB69134403F523
:102EF00030631A464FF400439360A7E03B6903F048
:102F00002003002B09D03B685A01BB69134403F529
:102F100030631A462023936098E03B6903F028034E
:102F2000002B40F093807B694B4A93420FD93B6959
:102F300003F40043002B0AD03B685A01BB691344D9
:102F400003F530631A464FF4004393607EE03A681D
:102F50001346DB0013449B0003F514737A68134493
:102F60000433FB60FB681A6A3B685901BB690B4478
:102F700003F530631B69C3F31203D21AFB685A616D
:102F80003B68002B14D1FB681B69002B09D17B68BF
:102F900018687B6803F29C431A46012102F020FC6A
:102FA00006E0FB68DA68FB685B691A44FB68DA6074
:102FB0003B68DBB21946786806F0E0F946E07B69C9
:102FC000264A934224D13B6903F40043002B0AD0E4
:102FD0003B685A01BB69134403F530631A464FF44A
:102FE0000043936032E03B6903F02003002B08D0DC
:102FF0003B685A01BB69134403F530631A4620232A
:1030000093603B68DBB21946786806F0B7F91DE0BB
:103010003B68002B14D179683A681346DB001344EF
:103020009B000B4403F519731B68002B08D17B68C8
:1030300018687B6803F29C431A46002102F0D0FB1B
:103040003B68DBB21946786806F098F90023184609
:103050002037BD4680BD00BF0A30544F0A31544F5F
:1030600080B586B000AF786039607B681B687B6193
:103070007B693B617B693C3304331B68FB603B68C5
:103080005A013B69134403F530639B68BB60FB68DE
:10309000154A93420ED9BB6803F40043002B09D0B4
:1030A0003B685A013B69134403F530631A464FF4F9
:1030B00000439360786806F04FF9FB680A4A934230
:1030C0000CD97B689B79012B08D17B6818687B68D9
:1030D00003F29C431A46012102F082FB00231846AA
:1030E0001837BD4680BD00BF0A30544F80B485B04C
:1030F00000AF78600B46FB7013463B807B681B6813
:103100005B6ABB60FB78002B07D13B8819047B68A6
:103110001B68BA680A439A6228E07B681B689B6A4E
:103120001B0CBA681344BB600023FB730DE07B6883
:103130001A68FB7B40339B0013445B681B0CBA6826
:103140001344BB60FB7B0133FB73FA7BFB78013BD1
:103150009A42ECD33B8818047B681968FB78013BE2
:10316000BA68024340339B000B445A600023184660
:103170001437BD465DF8047B704780B483B000AF60
:1031800078600B467B807B681B687A885A620023D4
:1031900018460C37BD465DF8047B704780B485B097
:1031A00000AF78607B681B68FB607B680122C3F816
:1031B000D8247B68002283F8CC24FB689B6943F009
:1031C0000062FB689A61FB685A6D054B1343FA680D
:1031D0005365002318461437BD465DF8047B7047DD
:1031E0000300001080B586B000AF78600023FB7547
:1031F0007B68002B01D1012391E27B681B6803F0FF
:103200000103002B00F08780964B9B6803F00C03B2
:10321000042B0CD0934B9B6803F00C03082B12D1AA
:10322000904B5B6803F48003B3F5800F0BD18D4B9B
:103230001B6803F40033002B6CD07B685B68002BA9
:1032400068D101236BE27B685B68B3F5803F06D1F0
:10325000844B1B68834A43F4803313602EE07B6801
:103260005B68002B0CD17F4B1B687E4A23F48033B4
:1032700013607C4B1B687B4A23F4802313601DE0A2
:103280007B685B68B3F5A02F0CD1764B1B68754A41
:1032900043F480231360734B1B68724A43F48033FA
:1032A00013600BE06F4B1B686E4A23F4803313608E
:1032B0006C4B1B686B4A23F4802313607B685B684C
:1032C000002B13D0FEF758F9386108E0FEF754F9E7
:1032D00002463B69D31A642B01D903231FE2614BD9
:1032E0001B6803F40033002BF0D014E0FEF744F920
:1032F000386108E0FEF740F902463B69D31A642BB7
:1033000001D903230BE2574B1B6803F40033002B56
:10331000F0D100E000BF7B681B6803F00203002BC4
:1033200069D0504B9B6803F00C03002B0BD04D4B26
:103330009B6803F00C03082B1CD14A4B5B6803F419
:103340008003002B16D1474B1B6803F00203002BB0
:1033500005D07B68DB68012B01D00123DFE1414B05
:103360001B6823F0F8027B681B69DB003D491343AF
:103370000B6040E07B68DB68002B23D0394B1B6877
:10338000384A43F001031360FEF7F6F8386108E0AD
:10339000FEF7F2F802463B69D31A022B01D9032348
:1033A000BDE1304B1B6803F00203002BF0D02D4B26
:1033B0001B6823F0F8027B681B69DB002949134373
:1033C0000B6018E0274B1B68264A23F001031360AB
:1033D000FEF7D2F8386108E0FEF7CEF802463B6906
:1033E000D31A022B01D9032399E11E4B1B6803F06A
:1033F0000203002BF0D17B681B6803F00803002B4D
:1034000038D07B685B69002B19D0164B5B6F154A6F
:1034100043F001035367FEF7AFF8386108E0FEF7A9
:10342000ABF802463B69D31A022B01D9032376E19C
:103430000C4B5B6F03F00203002BF0D01AE0094B3A
:103440005B6F084A23F001035367FEF795F8386174
:103450000AE0FEF791F802463B69D31A022B03D922
:1034600003235CE100380240914B5B6F03F00203E1
:10347000002BEED17B681B6803F00403002B00F0E7
:10348000A4808B4B1B6C03F08053002B0DD1884B19
:103490001B6C874A43F080531364854B1B6C03F00D
:1034A0008053BB60BB680123FB75824B1B6803F430
:1034B0008073002B18D17F4B1B687E4A43F48073C6
:1034C0001360FEF759F8386108E0FEF755F8024638
:1034D0003B69D31A642B01D9032320E1754B1B6888
:1034E00003F48073002BF0D07B689B68012B06D11E
:1034F0006F4B1B6F6E4A43F0010313672DE07B682F
:103500009B68002B0CD16A4B1B6F694A23F00103A7
:103510001367674B1B6F664A23F0040313671CE0B5
:103520007B689B68052B0CD1614B1B6F604A43F095
:10353000040313675E4B1B6F5D4A43F0010313677F
:103540000BE05B4B1B6F5A4A23F001031367584B88
:103550001B6F574A23F0040313677B689B68002B9B
:1035600015D0FEF709F838610AE0FEF705F80246C3
:103570003B69D31A41F28832934201D90323CEE04A
:103580004B4B1B6F03F00203002BEED014E0FDF752
:10359000F3FF38610AE0FDF7EFFF02463B69D31AFB
:1035A00041F28832934201D90323B8E0404B1B6FAC
:1035B00003F00203002BEED1FB7D012B05D13C4B28
:1035C0001B6C3B4A23F0805313647B689B69002B80
:1035D00000F0A480364B9B6803F00C03082B6BD0E3
:1035E0007B689B69022B49D1314B1B68304A23F021
:1035F00080731360FDF7C0FF386108E0FDF7BCFF82
:1036000002463B69D31A022B01D9032387E0284BDA
:103610001B6803F00073002BF0D17B68DA697B68CC
:103620001B6A1A437B685B6A9B011A437B689B6A2F
:103630005B08013B1B041A437B68DB6A1B061343D0
:103640001B4A43F000535360194B1B68184A43F060
:1036500080731360FDF790FF386108E0FDF78CFF81
:1036600002463B69D31A022B01D9032357E0104BC2
:103670001B6803F00073002BF0D04FE00C4B1B686D
:103680000B4A23F080731360FDF776FF386108E082
:10369000FDF772FF02463B69D31A022B01D90323BF
:1036A0003DE0034B1B6803F00073002BF0D135E0C5
:1036B00000380240007000401B4B5B68FB607B6879
:1036C0009B69012B28D0FB6803F480027B68DB69CF
:1036D0009A4221D1FB6803F03F027B681B6A9A4241
:1036E0001AD1FA6847F6C07313407A68526A920199
:1036F000934211D1FB6803F440327B689B6A5B08FC
:10370000013B1B049A4207D1FB6803F070627B689F
:10371000DB6A1B069A4201D0012300E00023184611
:103720001837BD4680BD00BF0038024080B584B068
:1037300000AF786039600023FB607B68002B01D10B
:103740000123D0E06A4B1B6803F00F033A689A42EA
:1037500010D9674B1B6823F00F0265493B68134380
:103760000B60634B1B6803F00F033A689A4201D069
:103770000123B8E07B681B6803F00203002B20D014
:103780007B681B6803F00403002B05D0594B9B6832
:10379000584A43F4E05393607B681B6803F00803C6
:1037A000002B05D0534B9B68524A43F4604393600F
:1037B000504B9B6823F0F0027B689B684D49134394
:1037C0008B607B681B6803F00103002B40D07B6893
:1037D0005B68012B07D1474B1B6803F40033002BB8
:1037E00015D101237FE07B685B68022B07D1414B39
:1037F0001B6803F00073002B09D1012373E03D4BDC
:103800001B6803F00203002B01D101236BE0394B4D
:103810009B6823F003027B685B68364913438B6027
:10382000FDF7AAFEF8600AE0FDF7A6FE0246FB6877
:10383000D31A41F28832934201D9032353E02D4B2E
:103840009B6803F00C027B685B689B009A42EBD19B
:10385000274B1B6803F00F033A689A4210D2244B9F
:103860001B6823F00F0222493B6813430B60204B77
:103870001B6803F00F033A689A4201D0012332E03B
:103880007B681B6803F00403002B08D0194B9B686E
:1038900023F4E0527B68DB68164913438B607B6836
:1038A0001B6803F00803002B09D0124B9B6823F41C
:1038B00060427B681B69DB000E4913438B6000F09C
:1038C00021F802460B4B9B681B0903F00F030A49C2
:1038D000CB5C22FA03F3094A1360094B1B681846B4
:1038E000FDF706FE002318461037BD4680BD00BF19
:1038F000003C024000380240D4E0000800000020F4
:10390000040000202DE9B04F90B000AF00237B638E
:103910000023FB6300233B630023BB63594B9B687D
:1039200003F00C03082B0DD0082B00F2A180002B14
:1039300002D0042B03D09BE0534BBB639BE0534B63
:10394000BB6398E04F4B5B6803F03F037B634D4BD9
:103950005B6803F48003002B28D04A4B5B689B090B
:1039600000223B627A623B6AC3F308000021474BA6
:1039700003FB01F2002300FB03F31344434AA0FBC3
:103980000212FA620A46BA62FA6A1344FB627B6B5D
:103990000022BB61FA61D7E90623D7E90A01FDF7E6
:1039A00093F902460B461346FB6353E0354B5B68C5
:1039B0009B0900223B617A613B69C3F3080A4FF01F
:1039C000000B52465B464FF000004FF000015901DA
:1039D00041EAD261500102460B46B2EB0A0863EBA2
:1039E0000B094FF000024FF000034FEA891343EA3E
:1039F00098634FEA8812B2EB080463EB09054FF0B5
:103A000000024FF00003EB0043EA5473E200144657
:103A10001D4614EB0A033B6045EB0B037B604FF044
:103A200000024FF00003D7E9004529468B022146EA
:103A300043EA915321468A02104619467B6B0022C5
:103A4000BB60FA60D7E90223FDF73EF902460B4658
:103A50001346FB630B4B5B681B0C03F00303013342
:103A60005B003B63FA6B3B6BB2FBF3F3BB6302E0BF
:103A7000054BBB6300BFBB6B18464037BD46BDE876
:103A8000B08F00BF003802400024F40040787D0170
:103A900080B400AF034B1B681846BD465DF8047B3D
:103AA000704700BF0000002080B588B000AF78608C
:103AB00000237B6100233B610023FB600023FB614B
:103AC0000023BB617B681B6803F00103002B12D04D
:103AD000694B9B68684A23F400039360664B9A68BD
:103AE0007B685B6B644913438B607B685B6B002B6B
:103AF00001D10123FB617B681B6803F40023002BC9
:103B000017D05D4BD3F88C3023F440127B68DB6B0D
:103B100059491343C1F88C307B68DB6BB3F5801FC8
:103B200001D10123FB617B68DB6B002B01D10123F9
:103B3000BB617B681B6803F48013002B17D04E4BCE
:103B4000D3F88C3023F440027B681B6C4A49134342
:103B5000C1F88C307B681B6CB3F5800F01D1012359
:103B6000FB617B681B6C002B01D10123BB617B686F
:103B70001B6803F08073002B01D00123FB617B687D
:103B80001B6803F02003002B00F08B803A4B1B6C6A
:103B9000394A43F080531364374B1B6C03F0805356
:103BA000BB60BB68354B1B68344A43F480731360B9
:103BB000FDF7E2FC786108E0FDF7DEFC02467B6978
:103BC000D31A642B01D9032357E32C4B1B6803F44E
:103BD0008073002BF0D0284B1B6F03F440733B61C4
:103BE0003B69002B35D07B681B6B03F440733A694B
:103BF0009A422ED0204B1B6F23F440733B611E4B27
:103C00001B6F1D4A43F4803313671B4B1B6F1A4A0B
:103C100023F480331367184A3B691367164B1B6FF5
:103C200003F00103012B14D1FDF7A6FC78610AE033
:103C3000FDF7A2FC02467B69D31A41F28832934217
:103C400001D9032319E30C4B1B6F03F00203002B74
:103C5000EED07B681B6B03F44073B3F5407F11D14A
:103C6000054B9B6823F4F8127B68196B044B0B40DF
:103C7000014913438B600BE00038024000700040A4
:103C8000FFFCFF0FAA4B9B68A94A23F4F81393602B
:103C9000A74B1A6F7B681B6BC3F30B03A449134339
:103CA0000B677B681B6803F01003002B10D0A04B40
:103CB000D3F88C309E4A23F08073C2F88C309C4B32
:103CC000D3F88C207B689B6B99491343C1F88C30E7
:103CD0007B681B6803F48043002B0AD0944BD3F815
:103CE000903023F440327B685B6E91491343C1F8F6
:103CF00090307B681B6803F40043002B0AD08C4B88
:103D0000D3F8903023F440227B689B6E884913439C
:103D1000C1F890307B681B6803F48033002B0AD015
:103D2000834BD3F8903023F440127B68DB6E8049DC
:103D30001343C1F890307B681B6803F40033002BF9
:103D40000AD07B4BD3F8903023F440027B681B6F82
:103D500077491343C1F890307B681B6803F0400338
:103D6000002B0AD0724BD3F8903023F003027B680B
:103D70005B6C6F491343C1F890307B681B6803F09C
:103D80008003002B0AD06A4BD3F8903023F00C024A
:103D90007B689B6C66491343C1F890307B681B6855
:103DA00003F48073002B0AD0614BD3F8903023F0DA
:103DB00030027B68DB6C5E491343C1F890307B684E
:103DC0001B6803F40073002B0AD0594BD3F89030D2
:103DD00023F0C0027B681B6D55491343C1F8903036
:103DE0007B681B6803F48063002B0AD0504BD3F828
:103DF000903023F440727B685B6D4D491343C1F8EA
:103E000090307B681B6803F40063002B0AD0484B9A
:103E1000D3F8903023F440627B689B6D4449134390
:103E2000C1F890307B681B6803F48053002B0AD0E4
:103E30003F4BD3F8903023F440527B68DB6D3C4914
:103E40001343C1F890307B681B6803F40053002BC8
:103E50000AD0374BD3F8903023F440427B681B6E76
:103E600033491343C1F890307B681B6803F4800327
:103E7000002B0AD02E4BD3F8903023F080627B6861
:103E80009B6F2B491343C1F890307B681B6803F488
:103E90000013002B11D0264BD3F8903023F0006292
:103EA0007B68DB6F22491343C1F890307B68DB6F7E
:103EB000B3F1006F01D10123BB617B681B6803F084
:103EC0000803002B01D00123BB617B681B6803F44E
:103ED0008023002B0AD0164BD3F8903023F0407289
:103EE0007B685B6F12491343C1F890307B681B6895
:103EF00003F40003002B0BD00D4BD3F8903023F0CC
:103F000080527B68D3F8803009491343C1F8903060
:103F1000FB69012B06D07B681B6803F00073002B44
:103F200000F0D980024B1B68014A23F0806301E056
:103F3000003802401360FDF71FFB786108E0FDF7D1
:103F40001BFB02467B69D31A642B01D9032394E13E
:103F50006C4B1B6803F00063002BF0D17B681B687F
:103F600003F00103002B21D07B685B6B002B1DD17C
:103F7000644BD3F884301B0C03F003033B61614BAB
:103F8000D3F884301B0E03F00F03FB607B685B6883
:103F90009A013B691B041A43FB681B061A437B68A2
:103FA0009B681B0757491343C1F884307B681B6823
:103FB00003F40023002B04D07B68DB6BB3F5801F78
:103FC0000AD07B681B6803F48013002B2ED07B681B
:103FD0001B6CB3F5800F29D14A4BD3F884301B0CEE
:103FE00003F003033B61474BD3F884301B0F03F00E
:103FF0000703FB607B685B689A013B691B041A43FB
:104000007B68DB681B061A43FB681B073D491343AB
:10401000C1F884303B4BD3F88C3023F01F027B680F
:104020005B6A013B37491343C1F88C307B681B68DE
:1040300003F08073002B1DD0324BD3F884301B0E5D
:1040400003F00F033B612F4BD3F884301B0F03F0B9
:104050000703FB607B685B689A017B681B691B0434
:104060001A433B691B061A43FB681B072549134388
:10407000C1F884307B681B6803F00073002B11D0FB
:104080007B685B689A017B681B691B041A437B6829
:10409000DB681B061A437B689B681B07194913439F
:1040A000C1F88430174B1B68164A43F080631360D5
:1040B000FDF762FA786108E0FDF75EFA02467B6977
:1040C000D31A642B01D90323D7E00E4B1B6803F0EE
:1040D0000063002BF0D0BB69012B40F0CD80094B71
:1040E0001B68084A23F080531360FDF745FA786196
:1040F0000AE0FDF741FA02467B69D31A642B03D923
:104100000323BAE0003802405E4B1B6803F0005303
:10411000B3F1005FEDD07B681B6803F40023002B34
:1041200003D07B68DB6B002B09D07B681B6803F432
:104130008013002B2ED07B681B6C002B2AD1514B97
:10414000D3F888301B0C03F003033B614D4BD3F8CD
:1041500088301B0F03F00703FB607B685B699A01E3
:104160003B691B041A437B689B691B061A43FB6867
:104170001B0744491343C1F88830424BD3F88C30B5
:1041800023F4F8527B689B6A013B1B023D491343B1
:10419000C1F88C307B681B6803F40013002B22D01D
:1041A0007B68DB6FB3F1006F1DD1364BD3F88830DD
:1041B0001B0E03F00F033B61324BD3F888301B0F0B
:1041C00003F00703FB607B685B699A017B681B6AED
:1041D0001B041A433B691B061A43FB681B0729494A
:1041E0001343C1F888307B681B6803F00803002B79
:1041F00028D0244BD3F888301B0E03F00F033B610B
:10420000204BD3F888301B0C03F00303FB607B6862
:104210005B699A01FB681B041A433B691B061A433E
:104220007B68DB691B0717491343C1F88830154BBE
:10423000D3F88C3023F440327B68DB6A1149134396
:10424000C1F88C300F4B1B680E4A43F0805313604B
:10425000FDF792F9786108E0FDF78EF902467B6977
:10426000D31A642B01D9032307E0064B1B6803F024
:104270000053B3F1005FEFD1002318462037BD464D
:1042800080BD00BF0038024084B080B584B000AF6C
:10429000786007F11C0080E80E0097F82130012BB0
:1042A00021D17B689B6B23F480327B689A637B68A7
:1042B000DA68214B13407A68D3607B68DB6823F4AB
:1042C00040127B68DA6097F82830012B05D17B68B3
:1042D000DB6843F480127B68DA60786801F0DEFA0C
:1042E0000346FB7310E07B68DB6843F040027B68A9
:1042F000DA60786801F0D2FA0346FB737B689B6B47
:1043000043F480327B689A63BB7F012B0BD17B68BF
:104310009B6843F006027B689A607B689B6843F069
:1043200020027B689A60FB7B18461037BD46BDE8CB
:10433000804004B0704700BFBFFFBDFF80B487B0AE
:1043400000AFF860B9601346FB71FB79022B65D1B1
:10435000BB68414A934206D9BB68404A934202D2A5
:104360000F237B6162E0BB683C4A934206D3BB6883
:104370003B4A934202D20E237B6157E0BB68384A26
:10438000934206D3BB68374A934202D20D237B6126
:104390004CE0BB68334A934206D3BB68324A93422F
:1043A00002D80C237B6141E0BB682F4A934206D9B7
:1043B000BB682E4A934202D80B237B6136E0BB6870
:1043C0002A4A934206D9BB68294A934202D80A2353
:1043D0007B612BE0BB68264A934206D9BB68254A1D
:1043E000934202D209237B6120E0BB68214A9342B9
:1043F00006D3BB68204A934202D808237B6115E0AC
:10440000BB681D4A934206D9BB681C4A934202D23C
:1044100007237B610AE006237B6107E0FB79002B21
:1044200002D109237B6101E009237B61FB68DB6822
:1044300023F47052FB68DA60FB68DA687B699B02E0
:1044400003F470531A43FB68DA60002318461C37E4
:10445000BD465DF8047B7047BFACD800C0E1E40006
:104460000024F400807306019F491A01FF2C3101DA
:104470003FA44C0100366E011FABA6010048E801C5
:1044800080B483B000AF78607B689B6843F0010222
:104490007B689A60002318460C37BD465DF8047BA4
:1044A000704780B483B000AF78607B689B6823F06E
:1044B00001027B689A60002318460C37BD465DF800
:1044C000047B704780B584B000AF78600B46FB700A
:1044D0000023FB607B68DB6823F0C0427B68DA6006
:1044E000FB78012B15D17B68DB6843F000527B68B9
:1044F000DA600A20FDF74CF8FB680A33FB60786845
:1045000001F03BF90346012B1ED0FB68C72BF0D905
:104510001AE0FB78002B15D17B68DB6843F0804202
:104520007B68DA600A20FDF733F8FB680A33FB602A
:10453000786801F022F90346002B05D0FB68C72BF1
:10454000F0D901E0012305E0FB68C82B01D101236C
:1045500000E0002318461037BD4680BD84B080B50A
:1045600086B000AF786007F1240080E80E000023D9
:10457000FB757B68FB6000233B6109E07A683B695F
:1045800040339B00134400225A603B6901333B6176
:104590003B690E2BF2D997F82E30002B1CD1FB680B
:1045A00003F500635B68FA6802F5006243F00203FA
:1045B00053607B689B6B23F400127B689A637B6873
:1045C0001B6843F040027B681A607B681B6843F0FD
:1045D00080027B681A6005E07B689B6B43F40012E5
:1045E0007B689A63FB6803F560631A4600231360D7
:1045F00097F82930012B0DD197F82730002B04D1E3
:104600000021786800F068F908E00121786800F07E
:1046100063F903E00321786800F05EF910217868FF
:1046200000F0FAF80346002B01D00123FB757868EF
:1046300000F024F90346002B01D00123FB75FB6831
:1046400003F500631A4600231361FB6803F500635A
:104650001A4600235361FB6803F500631A460023E2
:10466000D36100233B6143E03B695A01FB6813447B
:1046700003F510631B6803F00043B3F1004F18D13A
:104680003B69002B0AD13B695A01FB68134403F5CF
:1046900010631A464FF00063136013E03B695A0140
:1046A000FB68134403F510631A464FF09043136000
:1046B00008E03B695A01FB68134403F510631A468E
:1046C000002313603B695A01FB68134403F5106330
:1046D0001A46002313613B695A01FB68134403F532
:1046E00010631A464FF67F3393603B6901333B6199
:1046F00097F824301A463B699342B5D300233B61B7
:1047000043E03B695A01FB68134403F530631B68BF
:1047100003F00043B3F1004F18D13B69002B0AD1DD
:104720003B695A01FB68134403F530631A464FF0A6
:104730000063136013E03B695A01FB68134403F5FF
:1047400030631A464FF09043136008E03B695A010A
:10475000FB68134403F530631A46002313603B697A
:104760005A01FB68134403F530631A4600231361B2
:104770003B695A01FB68134403F530631A464FF650
:104780007F3393603B6901333B6197F824301A46CD
:104790003B699342B5D3FB6803F500631B69FA6874
:1047A00002F5006223F4807313617B6800229A6132
:1047B0007B686FF080425A6197F82630002B05D154
:1047C0007B689B6943F010027B689A617B689A69F9
:1047D0000F4B13437A68936197F82A30002B05D06A
:1047E0007B689B6943F008027B689A6197F82E30DA
:1047F000012B05D17B689A69064B13437A68936154
:10480000FB7D18461837BD46BDE8804004B07047B0
:1048100000383C800400004080B485B000AF786070
:1048200039600023FB60FB680133FB60FB68B3F178
:10483000706F01D903231BE07B681B69002BF2DA40
:104840000023FB603B689B0143F020027B681A61F8
:10485000FB680133FB60FB68B3F1706F01D9032380
:1048600006E07B681B6903F02003202BF0D00023B7
:1048700018461437BD465DF8047B704780B485B098
:1048800000AF78600023FB60FB680133FB60FB68CE
:10489000B3F1706F01D9032318E07B681B69002B0B
:1048A000F2DA0023FB607B6810221A61FB68013397
:1048B000FB60FB68B3F1706F01D9032306E07B68EE
:1048C0001B6903F01003102BF0D000231846143797
:1048D000BD465DF8047B704780B485B000AF78605A
:1048E0000B46FB707B68FB60FB6803F500631A688E
:1048F000FB78F96801F5006113430B60002318464B
:104900001437BD465DF8047B704780B487B000AFB4
:1049100078607B683B613B6903F500639B6803F04B
:104920000603FB60FB68002B02D10023FB750AE045
:10493000FB68022B02D0FB68062B02D10223FB7519
:1049400001E00F23FB75FB7D18461C37BD465DF863
:10495000047B704780B485B000AF786039607B68B5
:10496000FB603B681B78BB603B685B78012B39D1EF
:10497000FB6803F50063DA693B681B7803F00F03FB
:10498000012101FA03F39BB2F96801F500611343B9
:10499000CB61BB685A01FB68134403F510631B68C5
:1049A00003F40043002B53D1BB685A01FB68134446
:1049B00003F510631A683B689B68C3F30A013B6800
:1049C0001B799B041943BB689B050B431A43BB68C7
:1049D0005901FB680B4403F510631946204B134340
:1049E0000B6035E0FB6803F50063DA693B681B7810
:1049F00003F00F03012101FA03F31B04F96801F529
:104A000000611343CB61BB685A01FB68134403F593
:104A100030631B6803F40043002B19D1BB685A01B3
:104A2000FB68134403F530631A683B689B68C3F363
:104A30000A013B681B799B040B431A43BB6859016D
:104A4000FB680B4403F530631946054B13430B60B9
:104A5000002318461437BD465DF8047B704700BF3D
:104A60000080001080B485B000AF786039607B684A
:104A7000FB603B681B78BB603B685B78012B61D1B6
:104A8000BB685A01FB68134403F510631B6803F00D
:104A90000043B3F1004F1FD1BB685A01FB681344B8
:104AA00003F510631B68BA685101FA680A4402F5FD
:104AB000106243F000631360BB685A01FB68134443
:104AC00003F510631B68BA685101FA680A4402F5DD
:104AD000106243F080431360FB6803F50063DA6BF8
:104AE0003B681B7803F00F03012101FA03F39BB22B
:104AF000DB43F96801F500611340CB63FB6803F504
:104B00000063DA693B681B7803F00F03012101FAA7
:104B100003F39BB2DB43F96801F500611340CB61FD
:104B2000BB685A01FB68134403F510631A68BB683D
:104B30005901FB680B4403F510631946354B1340CC
:104B40000B6060E0BB685A01FB68134403F53063F7
:104B50001B6803F00043B3F1004F1FD1BB685A013B
:104B6000FB68134403F530631B68BA685101FA68A7
:104B70000A4402F5306243F000631360BB685A01D7
:104B8000FB68134403F530631B68BA685101FA6887
:104B90000A4402F5306243F080431360FB6803F57A
:104BA0000063DA6B3B681B7803F00F03012101FA05
:104BB00003F31B04DB43F96801F500611340CB6389
:104BC000FB6803F50063DA693B681B7803F00F03A9
:104BD000012101FA03F31B04DB43F96801F50061CD
:104BE0001340CB61BB685A01FB68134403F5306383
:104BF0001A68BB685901FB680B4403F5306319461A
:104C0000054B13400B60002318461437BD465DF872
:104C1000047B7047007833EC0078F3EF80B58AB0FE
:104C200002AFF860B9601346FB71FB68FB61BB68BB
:104C30001B78BB61BB685B78012B40F08181BB684E
:104C40001B69002B32D1BB695A01FB69134403F580
:104C500010631A69BB695901FB690B4403F51063C2
:104C60001946A54B13400B61BB695A01FB691344FC
:104C700003F510631B69BA695101FA690A4402F528
:104C8000106243F400231361BB695A01FB691344AA
:104C900003F510631A69BB695901FB690B4403F5FD
:104CA00010631946954B13400B6192E0BB695A01A2
:104CB000FB69134403F510631A69BB695901FB6969
:104CC0000B4403F5106319468C4B13400B61BB6911
:104CD0005A01FB69134403F510631A69BB69590152
:104CE000FB690B4403F510631946834B13400B61BA
:104CF000BB69002B1AD1BB681A69BB689B689A42D2
:104D000003D9BB689A68BB681A61BB695A01FB6921
:104D1000134403F510631B69BA695101FA690A4427
:104D200002F5106243F4002313611BE0BB695A01D2
:104D3000FB69134403F510631A69BB681969BB6802
:104D40009B680B44591EBB689B68B1FBF3F3D90405
:104D50006B4B0B40B9694801F969014401F51061D9
:104D600013430B61BB695A01FB69134403F51063DC
:104D70001A69BB681B69C3F31203B9694801F96971
:104D8000014401F5106113430B61BB681B79012BD2
:104D90001FD1BB695A01FB69134403F510631B69FA
:104DA000BA695101FA690A4402F5106223F0C0435E
:104DB0001361BB695A01FB69134403F510631B6956
:104DC000BA695101FA690A4402F5106243F00053CE
:104DD0001361FB79012B4BD1BB68DB69002B09D038
:104DE000BB695A01FB69134403F510631A46BB689B
:104DF000DB695361BB681B79012B28D1FB6903F583
:104E000000639B6803F48073002B10D1BB695A01C7
:104E1000FB69134403F510631B68BA695101FA6911
:104E20000A4402F5106243F0005313600FE0BB69BF
:104E30005A01FB69134403F510631B68BA695101F9
:104E4000FA690A4402F5106243F080531360BB69AB
:104E50005A01FB69134403F510631B68BA695101D9
:104E6000FA690A4402F5106243F0044313606AE1F0
:104E7000BB695A01FB69134403F510631B68BA69E7
:104E80005101FA690A4402F5106243F004431360C9
:104E9000BB681B79012B15D0BB681B69002B00F088
:104EA0005281FB6903F500635A6BBB681B7803F002
:104EB0000F03012101FA03F3F96901F500611343BE
:104EC0004B6340E1FB6903F500639B6803F4807367
:104ED000002B17D1BB695A01FB69134403F510631A
:104EE0001B68BA695101FA690A4402F5106243F07D
:104EF0000053136016E000BFFFFF07E00000F8FF5B
:104F00000000F81FBB695A01FB69134403F51063E5
:104F10001B68BA695101FA690A4402F5106243F04C
:104F200080531360BB68D968BB681A78BB681B697B
:104F300098B2FB7900930346F86800F0B9F902E1F2
:104F4000BB695A01FB69134403F530631A69BB69F5
:104F50005901FB690B4403F5306319467C4B134040
:104F60000B61BB695A01FB69134403F530631A698D
:104F7000BB695901FB690B4403F530631946754B56
:104F800013400B61BB69002B2FD1BB681B69002B41
:104F900003D0BB689A68BB681A61BB689A68BB6833
:104FA0001A62BB695A01FB69134403F530631A693D
:104FB000BB681B6AC3F31203B9694801F96901446C
:104FC00001F5306113430B61BB695A01FB6913445E
:104FD00003F530631B69BA695101FA690A4402F5A5
:104FE000306243F4002313615FE0BB681B69002B50
:104FF00023D1BB695A01FB69134403F530631A6975
:10500000BB689B68C3F31203B9694801F96901449D
:1050100001F5306113430B61BB695A01FB6913440D
:1050200003F530631B69BA695101FA690A4402F554
:10503000306243F40023136137E0BB681A69BB6830
:105040009B6813445A1EBB689B68B2FBF3F3FB8258
:10505000BB689B68FA8A03FB02F2BB681A62BB69F1
:105060005A01FB69134403F530631A69FB8AD904BA
:10507000394B0B40B9694801F969014401F53061C8
:1050800013430B61BB695A01FB69134403F5306399
:105090001A69BB681B6AC3F31203B9694801F9694D
:1050A000014401F5306113430B61FB79012B0DD1F4
:1050B000BB68DB68002B09D0BB68D968BB695A01A3
:1050C000FB69134403F530630A465A61BB681B79D8
:1050D000012B28D1FB6903F500639B6803F48073FF
:1050E000002B10D1BB695A01FB69134403F53063EF
:1050F0001B68BA695101FA690A4402F5306243F04B
:10510000005313600FE0BB695A01FB69134403F5B8
:1051100030631B68BA695101FA690A4402F53062CA
:1051200043F080531360BB695A01FB69134403F5D4
:1051300030631B68BA695101FA690A4402F53062AA
:1051400043F004431360002318462037BD4680BD5A
:105150000000F8FFFFFF07E00000F81F80B487B0F1
:1051600000AF786039600023FB600023FB757B682B
:105170003B613B685B78012B4AD13B681B785A0145
:105180003B69134403F510631B6803F00043B3F15C
:10519000004F40F086803B681B785A013B691344FE
:1051A00003F510631B683A68127851013A690A44A2
:1051B00002F5106243F0006313603B681B785A01EC
:1051C0003B69134403F510631B683A681278510178
:1051D0003A690A4402F5106243F080431360FB68A9
:1051E0000133FB60FB6842F21072934202D9012343
:1051F000FB7556E03B681B785A013B69134403F585
:1052000010631B6803F00043B3F1004FE7D048E0A0
:105210003B681B785A013B69134403F530631B68F4
:1052200003F00043B3F1004F3BD13B681B785A01B8
:105230003B69134403F530631B683A6812785101E7
:105240003A690A4402F5306243F0006313603B6838
:105250001B785A013B69134403F530631B683A68B5
:10526000127851013A690A4402F5306243F08043F2
:105270001360FB680133FB60FB6842F210729342DB
:1052800002D90123FB750CE03B681B785A013B698E
:10529000134403F530631B6803F00043B3F1004F80
:1052A000E7D0FB7D18461C37BD465DF8047B704790
:1052B00080B489B000AFF860B96011461A460B4659
:1052C000FB711346BB80FB687B61BB68FB6197F891
:1052D0002830002B23D1BB8803339B083B6100237C
:1052E000BB6118E0FB791A037B69134403F5805313
:1052F0001A46FB691B681360FB690133FB61FB699C
:105300000133FB61FB690133FB61FB690133FB6125
:10531000BB690133BB61BA693B699A42E2D300239E
:1053200018462437BD465DF8047B704780B48BB0C7
:1053300000AFF860B9601346FB80FB68BB61BB68D7
:105340007B62FB889B089BB27B61FB8803F00303B5
:10535000FB8300233B6214E0BB6903F580531A68AA
:105360007B6A1A607B6A01337B627B6A01337B62F2
:105370007B6A01337B627B6A01337B623B6A013368
:105380003B623A6A7B699A42E6D3FB8B002B1ED0C4
:1053900000233B62BB6903F580531A4607F11003F3
:1053A00012681A603A693B6ADBB2DB0022FA03F347
:1053B000DAB27B6A1A703B6A01333B627B6A013363
:1053C0007B62FB8B013BFB83FB8B002BEAD17B6A6F
:1053D00018462C37BD465DF8047B704780B485B015
:1053E00000AF786039607B68FB603B681B78BB600E
:1053F0003B685B78012B2CD1BB685A01FB681344D6
:1054000003F510631B68002B12DBBB68002B0FD069
:10541000BB685A01FB68134403F510631B68BA6844
:105420005101FA680A4402F5106223F080431360C8
:10543000BB685A01FB68134403F510631B68BA6824
:105440005101FA680A4402F5106243F40013136034
:105450002BE0BB685A01FB68134403F530631B68FB
:10546000002B12DBBB68002B0FD0BB685A01FB6816
:10547000134403F530631B68BA685101FA680A44A3
:1054800002F5306223F080431360BB685A01FB6869
:10549000134403F530631B68BA685101FA680A4483
:1054A00002F5306243F400131360002318461437EA
:1054B000BD465DF8047B704780B485B000AF78606E
:1054C00039607B68FB603B681B78BB603B685B783E
:1054D000012B28D1BB685A01FB68134403F5106304
:1054E0001B68BA685101FA680A4402F5106223F495
:1054F000001313603B681B79032B03D03B681B79B7
:10550000022B38D1BB685A01FB68134403F51063C2
:105510001B68BA685101FA680A4402F5106243F048
:105520008053136027E0BB685A01FB68134403F5FE
:1055300030631B68BA685101FA680A4402F53062A8
:1055400023F4001313603B681B79032B03D03B68E3
:105550001B79022B0FD1BB685A01FB68134403F57A
:1055600030631B68BA685101FA680A4402F5306278
:1055700043F080531360002318461437BD465DF88E
:10558000047B704780B485B000AF78600B46FB7039
:105590007B68FB60FB6803F500631B68FA6802F533
:1055A000006223F4FE631360FB6803F500631A686E
:1055B000FB781B0103F4FE63F96801F500611343F6
:1055C0000B60002318461437BD465DF8047B704716
:1055D00080B485B000AF78607B68FB60FB6803F542
:1055E00060631B68FA6802F5606223F003031360CE
:1055F000FB6803F500635B68FA6802F5006223F05C
:1056000002035360002318461437BD465DF8047B3F
:10561000704780B485B000AF78607B68FB60FB6842
:1056200003F560631B68FA6802F5606223F0030308
:105630001360FB6803F500635B68FA6802F50062BB
:1056400043F002035360002318461437BD465DF84B
:10565000047B704780B485B000AF78607B685B697D
:10566000FB607B689B69FA681340FB60FB68184627
:105670001437BD465DF8047B704780B485B000AF39
:1056800078607B68FB60FB6803F500639B69BB6027
:10569000FB6803F50063DB69BA681340BB60BB6855
:1056A0001B0C18461437BD465DF8047B704780B468
:1056B00085B000AF78607B68FB60FB6803F5006332
:1056C0009B69BB60FB6803F50063DB69BA68134044
:1056D000BB60BB689BB218461437BD465DF8047BBF
:1056E000704780B485B000AF78600B46FB707B6874
:1056F000FB60FB785A01FB68134403F530639B6839
:10570000BB60FB6803F500635B69BA681340BB606C
:10571000BB6818461437BD465DF8047B704780B4FB
:1057200087B000AF78600B46FB707B687B617B695C
:1057300003F500631B693B617B6903F500635B6BE9
:10574000FB60FB7803F00F03FA6822FA03F3DB0136
:10575000DBB23A6913433B61FB785A017B6913441E
:1057600003F510639B683A691340BB60BB68184639
:105770001C37BD465DF8047B704780B483B000AF32
:1057800078607B685B6903F0010318460C37BD46FF
:105790005DF8047B7047000080B485B000AF78608E
:1057A0007B68FB60FB6803F510631A68FB6803F510
:1057B00010631946094B13400B60FB6803F5006347
:1057C0005B68FA6802F5006243F48073536000235B
:1057D00018461437BD465DF8047B704700F8FFFF9C
:1057E00080B487B000AFF8600B467A60FB72FB684C
:1057F0007B61FB683C3304331B683B613B69264A91
:1058000093420AD97B6903F530631B6803F00043B8
:10581000B3F1004F01D1002337E07B6903F530631A
:105820001A46002313617B6903F530631B697A69AB
:1058300002F5306243F4002313617B6903F53063A2
:105840001B697A6902F5306243F0180313617B69C2
:1058500003F530631B697A6902F5306243F0C04397
:105860001361FB7A012B0FD17B6903F530631A4674
:105870007B6853617B6903F530631B687A6902F5C5
:10588000306243F080231360002318461C37BD4666
:105890005DF8047B704700BF0A30544F80B485B078
:1058A00000AF78600023FB60FB680133FB60FB689E
:1058B000B3F1706F01D903231BE07B681B69002BD8
:1058C000F2DA0023FB607B681B6943F001027B680E
:1058D0001A61FB680133FB60FB68B3F1706F01D99B
:1058E000032306E07B681B6903F00103012BF0D062
:1058F000002318461437BD465DF8047B704700004E
:1059000080B584B000AF78600B46FB704FF41D701B
:1059100004F03EF80346FB60FB68002B09D17B686E
:10592000D3F8D4227B68B032002143F8221002233E
:105930006EE07B68D3F8D4227B68B032F96843F814
:1059400022107B68D3F8D4227B68B03253F822202F
:105950007B68C3F8BC227B681B7C002B2BD12E4BB1
:1059600019784FF400730222786803F04EFE2A4B38
:105970001B7803F00F02796813469B0013449B00C9
:105980000B4403F5B27301221A80244B19784FF4AB
:1059900000730222786803F038FE204B1B7803F076
:1059A0000F02796813469B0013449B000B44243379
:1059B00001221A8028E0184B1978402302227868C7
:1059C00003F023FE144B1B7803F00F027968134693
:1059D0009B0013449B000B4403F5B27301221A8011
:1059E0000E4B197840230222786803F00EFE0B4B11
:1059F0001B7803F00F02796813469B0013449B0049
:105A00000B44243301221A80786800F02BFA00231B
:105A100018461037BD4680BD6F0000206E00002084
:105A200080B582B000AF78600B46FB70264B1B78C8
:105A30001946786803F00FFE234B1B7803F00F0222
:105A4000796813469B0013449B000B4403F5B27323
:105A500000221A801D4B1B781946786803F0FBFD65
:105A60001A4B1B7803F00F02796813469B0013440E
:105A70009B000B44243300221A807B68D3F8D42285
:105A80007B68B03253F82230002B18D0786800F0D1
:105A900067FA7B68D3F8D4227B68B03253F822309F
:105AA000184603F07DFF7B68D3F8D4227B68B032C0
:105AB000002143F822107B680022C3F8BC22002397
:105AC00018460837BD4680BD6F0000206E000020DC
:105AD00080B586B000AF786039607B68D3F8D42297
